:100000000EC028C027C026C025C024C023C022C0DF
:1000100021C020C0AAC01EC01DC01CC042C01124E7
:100020001FBECFE5D2E0DEBFCDBF11E0A0E6B0E05D
:10003000EEE0F3E002C005900D92A631B107D9F7CA
:1000400021E0A6E1B1E001C01D92A632B207E1F7BE
:1000500013D15BC1D5CFB99A87B38A7F87BBBB98D1
:10006000C39A88E18DB980E48EB96E9A85EA8FB91A
:100070000895B39902C0B99A0895B99880E48EB9E9
:10008000109217010895811181E0E82FF0E0E85EF9
:10009000FE4F8081089510921601089580911601F7
:1000A00008951F920F920FB60F9211248F93EF9322
:1000B000FF938FB1E0911701F0E0E85EFE4F80837F
:1000C0008F5F8FB980E48EB9809117018F5F809325
:1000D000170180911701823028F01092170181E0FA
:1000E00080931601FF91EF918F910F900FBE0F90AB
:1000F0001F9018951BBC80B78E7F80BFC198089554
:1001000080B7816080BF0895F5DF19BE86E087BDA6
:100110008CB580648CBD8CB580628CBD80B78068E6
:1001200080BF80B7816080BFBC9A8AB58B608ABD72
:1001300083B7816083BF89B7806189BF8DE388BD44
:10014000DFDF78940895809360000895823060F432
:10015000E82FF0E0EE0FFF1FEE0FFF1FE65EFE4FF1
:10016000408351836283738308951F920F920FB669
:100170000F9211242F933F934F935F936F937F932D
:100180008F939F93AF93BF9380911A0190911B011E
:10019000A0911C01B0911D012091220130912301F9
:1001A000820F931F9093230180932201809122015B
:1001B0009091230197FD2EC08FEF90E040911E019A
:1001C00050911F0160912001709121012091240123
:1001D00030912501240F351F3093250120932401F0
:1001E000209124013091250137FD02C081509F4F9D
:1001F000969587958BBDBF91AF919F918F917F9180
:100200006F915F914F913F912F910F900FBE0F9083
:100210001F90189590E080E0D1CF0F93CF93DF939C
:1002200000D000D01F92CDB7DEB7362F522F282F27
:10023000602F70E080E090E00F900F900F900F9093
:100240000F90DF91CF910F910895CF93DF9300D05E
:1002500000D01F92CDB7DEB7282F30E040E050E04D
:1002600060E070E080E090E00F900F900F900F90B2
:100270000F90DF91CF91089547DFEDDE789440E74E
:1002800053E060E070E080E061DF4AE252E060E06D
:1002900070E081E05BDF44E952E060E070E083E021
:1002A00055DFE7DEFBDE8823E1F380E0ECDEC82FDC
:1002B00081E0E9DEC535A1F48A3AA1F440E753E0D4
:1002C00060E070E080E042DF4AE252E060E070E02F
:1002D00081E03CDF44E952E060E070E082E036DF3C
:1002E000DADEDFCF8C3CE1F74EEE51E060E070E00B
:1002F00080E02CDF4BE452E060E070E081E026DF3C
:0E03000044EE52E060E070E0E9CFF894FFCFE9
:10030E000380868C92989EA5AAB0B6BCC1C6CBD0EF
:10031E00D5DADEE2E6EAEDF0F3F5F8FAFBFDFEFEE5
:10032E00FFFFFFFEFEFDFBFAF8F5F3F0EDEAE6E265
:10033E00DEDAD5D0CBC6C1BCB6B0AAA59E98928C3B
:10034E00868079736D67615A554F49433E39342F14
:10035E002A25211D1915120F0C0A07050402010189
:10036E000000000101020405070A0C0F1215191DE9
:10037E0021252A2F34393E43494F555A61676D73F3
:10038E00790004070B0205090004070B020509009A
:10039E0004070B0205090004070B0205097003A4EC
:1003AE0003EE010B022A024B026E029402BA02E421
:0603BE000210033F0300E2
:00000001FF
